:100000000C94FD800C940F810C940F810C940F8143
:100010000C940F810C940F810C940F810C940F8120
:100020000C940F810C940F810C940F810C940F8110
:100030000C940F810C940F810C940F810C940F8100
:100040000C940F810C940F810C940F810C940F81F0
:100050000C940F810C940F810C940F810C940F81E0
:100060000C940F810C940F810C940F810C940F81D0
:100070000C940F810C940F810C940F810C940F81C0
:100080000C940F810C940F810C940F810C940F81B0
:100090000C940F810C940F810C940F810C940F81A0
:1000A0000C940F810C940F810C940F810C940F8190
:1000B0000C940F810C940F810C940F810C940F8180
:1000C0000C940F810C940F810C940F810C940F8170
:1000D0000C940F810C940F810C940F810C940F8160
:1000E0000C940F810C940F810C940F810C940F8150
:1000F0000C940F810C940F810C940F810C940F8140
:100100000C940F810C940F810C940F810C940F812F
:100110000C940F810C940F810C940F810C940F811F
:100120000C940F810C940F810C940F810C940F810F
:100130000C940F810C940F810C940F810C940F81FF
:100140000C940F810C940F810C940F810C940F81EF
:100150000C940F810C940F810C940F810C940F81DF
:100160000C940F810C940F810C940F810C940F81CF
:100170000C940F810C940F810C940F810C940F81BF
:100180000C940F810C940F810C940F810C940F81AF
:100190000C940F810C940F810C940F810C940F819F
:1001A0000C940F810C940F810C940F810C940F818F
:1001B0000C940F810C940F810C940F810C940F817F
:1001C0000C940F810C940F810C940F810C940F816F
:1001D0000C940F810C940F810C940F810C940F815F
:1001E0000C940F810C940F8158426A01F285F985B5
:1001F000FB8536864E861086498611241FBECFEFBA
:10020000CDBFDFE2DEBF21E2A0E0B0E201C01D927F
:10021000A130B207E1F70E94EC830C94B3860C94F2
:1002200000803BB78BBFFB0186913BBF08953BB776
:100230008BBFFB01879196913BBF089542E097C029
:1002400041E095C08093C00188278093C1018093CD
:10025000C20147E07CD0CB0108958093C40148E0FF
:1002600076C08091D00108953BB748E10C94BC81E1
:100270003BB74AE10C94BC813BB7882799278BBFD9
:1002800040E20C94BC813BB78BBFCB0142E20C94A3
:10029000BC813BB70B0143E20C94BC81EE27FF27E6
:1002A00019BEDC0143E24093CA0150E82DE90D90EC
:1002B0001D9020933400E89532965A95C1F7112489
:1002C00008953BB76BBFFA0119BEDC0140E04093D3
:1002D000CA0150E0879197918D939D935A95D1F7DC
:1002E0003BBF08953BB78BBFCB0144E20C94BC816C
:1002F0003BB78BBFCB0145E20C94BC813BB746E2D8
:100300000C94BC813BB78BBFCB014AE20C94BC81FF
:100310003BB78BBFCB014CE20C94BC813BB78BBF8E
:10032000CB014DE20C94BC8148E311C049E30FC0FE
:1003300028ED2093340021E02093CC0108952091F2
:10034000CF0127FDFCCF22272093CA0108954093B7
:10035000CA0128ED31E0209334003093CB01609145
:10036000C4017091C5018091C60199270895FC01CF
:100370004093CA0184910895FC014093CA012DE97C
:1003800020933400E89511243BBF08958627682FF9
:1003900062956827062E669566956025062E6695F9
:1003A00060256770082E892F669507946795902DB4
:1003B00086270694679590258627089590910020BA
:1003C0009230F0F78091A10B87FFFACF81E0809304
:1003D00000208091A00B089590910020923058F455
:1003E0008093A00B8091A10B86FFFCCF8091A10B85
:1003F00080648093A10B08950E94DE818F930E94F8
:10040000DE819F91882F08958F929F92AF92BF9225
:10041000CF92DF92EF92FF921F93CF93DF93EC0185
:10042000162F7A0141E0A42E40E2B42EC12CD12C2B
:10043000CC16DD0618F40E94DE8101C08FEFF501B5
:1004400081935F01FFEFCF1ADF0AC11481E0D80664
:1004500079F71534B1F4F70160817181AE0181E063
:1004600090E20E947D86F70180819181A281B38113
:100470008C0F9D1FA11DB11D80839183A283B38327
:1004800034C0163411F0153571F5F7018081918172
:10049000A281B381D695C7954C015D018C0E9D1E3E
:1004A000A11CB11C80829182A282B382163461F4B5
:1004B000BC01CD01660F771F881F991F21E041E025
:1004C00050E20E94A88511C0153579F481E090E2D0
:1004D0000E944E810E9434810E949F810E94388137
:1004E0000E949F8102C08FE301C08DE0DF91CF9118
:1004F0001F91FF90EF90DF90CF90BF90AF909F90B3
:100500008F9008958F929F92AF92BF92CF92DF9279
:10051000FF920F931F93CF93DF936C01F62E8A0106
:1005200025E4621318C0FA0160817181AC0181E099
:1005300090E20E946186F80180819181A281B3815D
:100540008C0D9D1DA11DB11D80839183A283B3835A
:10055000C1E0D0E25CC0F6E46F1731F025E5621728
:1005600019F080E568135DC0F80180819181A28156
:10057000B381880F991FAA1FBB1F80839183A28319
:10058000B3835601C0E0D0E0F6E4FF120CC04E0188
:100590002FEF821A920AF801608171818281938122
:1005A0000E94118118C0F5E5FF120AC04E012FEF1D
:1005B000821A920AF801808191810E9420810BC0E9
:1005C000F0E5FF120CC04E012FEF821A920AF801DB
:1005D00080810E941E81CF5FDF4D8883E4010E94ED
:1005E0009F81F80180819181A281B3810196A11D33
:1005F000B11D80839183A283B383F1E0AF1AB10868
:1006000019F6B695A79597958795F8019DCFCE01D8
:10061000815090428C159D0524F489910E94EC81B3
:10062000F6CFDF91CF911F910F91FF90DF90CF9088
:10063000BF90AF909F908F9008958F929F92AF92AE
:10064000BF92CF92DF92EF92FF920F931F93CF93BF
:10065000DF934B015C0169017A01C0E0D1E000E069
:1006600010E0C114D104E104F104F9F0C11581E0F6
:10067000D80761F4B501A40181E090E20E94618194
:100680008FEF981AA80AB80AC0E0D0E0FE01EF5F29
:10069000FF4D6081C8010E94C6818C01219681E0D6
:1006A000C81AD108E108F108DCCFC801DF91CF9169
:1006B0001F910F91FF90EF90DF90CF90BF90AF9080
:1006C0009F908F900895CF92DF92EF92FF920F93B9
:1006D0001F93CF93DF9340E05FEF60E070E081E035
:1006E00090E20E9461818091FB20883509F06BC007
:1006F0008091FC20823409F066C08091FD2089340D
:1007000009F061C08091FE20863409F05CC0C09180
:10071000FF20D0E0DC2FCC2780910021C82B2AEFCE
:100720003FE740E050E060E070E880E090E00E9449
:100730001D8306E010E06FEF0E94C6810150110991
:10074000D1F7C817D90751F0DF91CF911F910F91C1
:10075000FF90EF90DF90CF900C941086C12CD12C9D
:100760007601D0E1CFEFD093A706B701A60150588C
:100770006F4F7F4F81E090E20E946181C1148FE74B
:10078000D806E104F10491F021E041E050E2C70114
:10079000B6010E94A8858FEFD81AE80AF80AC1149A
:1007A00080E8D806E104F104F1F6CECFC093FB2037
:1007B000C093FC20C093FD20C093FE20C093FF2077
:1007C000C0930021E1CFDF91CF911F910F91FF9056
:1007D000EF90DF90CF900895EF92FF920F931F93C9
:1007E000CF93DF9300D000D0CDB7DEB719821A8245
:1007F0001B821C821092002080E18093A1068093CE
:10080000A5060E94DD8588E18093B2062091002034
:100810003AE088EB9BE0A0E0B0E040E10097A10562
:10082000B10521F00197A109B10907C04093A706BE
:10083000315088EB9BE0A0E0B0E05091A10B57FD58
:1008400002C010E002C021E011E0A895112339F0A8
:100850002093002011E0E12CF12C00E112C03111B5
:10086000DDCF20930020F7CF803579F18C3469F10A
:10087000853409F0D3C08DE00E94EC8110E00E9425
:100880009F81112309F44BC10093A7060E94DE81CA
:10089000982F813611F489E53EC1813429F40E94F4
:1008A000FC81A0E0B0E066C0883439F40E94DE81AB
:1008B000A82F0E94FC81BB275DC0853641F40E94B1
:1008C0003C810E949F810E94CF858DE024C18236A9
:1008D00029F489E50E94EC8181E0A7C0823469F4A3
:1008E0000E94FC817C010E94DE81AE014F5F5F4F60
:1008F000682FC7010E9404820EC1873669F40E94E6
:10090000FC817C010E94DE81AE014F5F5F4F682F4A
:10091000C7010E94828201C1823591F489819A8146
:10092000AB81BC81BC01CD01660F771F881F991F69
:100930000E941781182F892F0E94EC81812F45C0BA
:10094000833629F40E94DE81E82EF12CBECF833459
:10095000B1F40E94DE81F82A89819A81B701880F5B
:10096000991F0E94498189819A81AB81BC8101963E
:10097000A11DB11D89839A83AB83BC83A6CF8D361D
:10098000A1F489819A81AB81BC81811520E892070D
:10099000A105B10508F0BEC0BC01CD01660F771FEF
:1009A000881F991F0E94728190CF843441F40E9465
:1009B000DE81682F89819A810E948786D4CF843610
:1009C00091F489819A810E946D860E94EC818981CF
:1009D0009A81AB81BC810196A11DB11D89839A8347
:1009E000AB83BC839AC08C3629F40E94DE810E94BE
:1009F0002D816BCF823719F40E9431818CC08634EF
:100A000011F480E008C08E3411F481E004C0813517
:100A100009F02ACF82E00E9422817DC0803711F444
:100A200083E579C0843729F48BE70E94EC8180E06C
:100A300072C088E8890F823010F0943519F40E9452
:100A4000DE8143CF9335A1F488E50E94EC8182E4F6
:100A50000E94EC818FE60E94EC818FE60E94EC817F
:100A600084E70E94EC818BE20E94EC818BE253C010
:100A7000963529F481E30E94EC8187E34CC09337DB
:100A800041F482E40E94EC8186E90E94EC818EE1CF
:100A900042C09836E9F50E94DE81863409F128F4D7
:100AA000813481F0823421F117C0813681F084379E
:100AB00099F420E030E840E050E060E070E880E049
:100AC00090E01EC020E030E041E050E00DC020E0AA
:100AD00030E840E050E008C08FE30E94EC81D4CEC3
:100AE00020E030E141E050E060E070E0CB0108C080
:100AF00020E030E140E050E060E070E081E090E034
:100B00000E941D83182F892F0E94EC81812F03C022
:100B10009B3119F08FE30E94EC8111E0B0CE0E946E
:100B200063830E94E9851092B20680E18093A20659
:100B30008093A6060C94000080E090E02496CDBF40
:100B4000DEBFDF91CF911F910F91FF90EF9008953D
:100B5000CF92DF92EF92FF92CF93DF931F92CDB7A8
:100B6000DEB76B017C01CA0129830E944E81298175
:100B7000C701B601222319F00E94788102C00E94A9
:100B800072810F90DF91CF91FF90EF90DF90CF9027
:100B90000C949F818091CF0187FDFCCF08950E9426
:100BA000CA8580E38093CA01EBECF1E021E030E0FC
:100BB00088ED90E084BF2083089588E08093A106AB
:100BC000E0EAFBE083E1868380EC87838CE1848329
:100BD0000895E0EAFBE014821682178288E0809391
:100BE000A206089527E031E0FC012083318380E0F4
:100BF000089582E00895CF93CFB76130710521E069
:100C00008207910550F4F8940E9443810E949F81CD
:100C10001092CA01CFBF80E001C083E0CF91089558
:100C2000CF92DF92EF92FF92CF93CFB7F894C12C7F
:100C300080E8D82EE12CF12CC701B6010E94438137
:100C40000E949F818FEFD81AE80AF80AC114D104D4
:100C500081E0E806F10481F71092CA01CFBF80E07D
:100C6000CF91FF90EF90DF90CF900895CF93CFB7C3
:100C70006130710531E08307910540F4F8940E94DA
:100C8000A8851092CA01CFBF80E001C083E0CF9158
:100C9000089570588F4F9F4F0C943686CF93CFB7DF
:100CA000F8940E944E810E9434810E949F810E948C
:100CB00038810E949F811092CA01CFBF80E0CF91FE
:100CC0000895E0ECF1E0A785A7FDFDCFA485A8601D
:100CD000A4876050704F0C94AA8603D08081992716
:100CE0000895E0ECF1E0378537FDFDCF34853860BD
:100CF0003487FC01E050F04F0895DC01CB0103C0C4
:100D00002D910E94888641505040D0F70895262F9B
:100D1000E0ECF1E0378537FDFDCF3485377F348750
:100D2000378531FF09C036E3328738ED34BF31E013
:100D30003387378537FDFDCF33E332878083918357
:100D40001282248325E3228728ED31E024BF3387F4
:100D500001960895FB01DC0102C001900D92415003
:0A0D60005040D8F70895F894FFCF33
:00000001FF
