:10000000F3C000000EC100000CC100000AC10000D6
:1000100008C1000006C1000004C1000002C10000C8
:1000200000C10000FEC00000FCC00000FAC00000DB
:10003000F8C00000F6C00000F4C00000F2C00000EC
:10004000F0C00000EEC00000ECC00000EAC00000FC
:10005000E8C00000E6C00000E4C00000E2C000000C
:10006000E0C00000C9C40000DCC00000DAC000002D
:10007000D8C00000D6C00000D4C00000D2C000002C
:10008000D0C00000CEC00000CCC00000CAC000003C
:10009000C8C00000C6C00000C4C00000C2C000004C
:1000A000C0C00000BEC00000BCC00000BAC000005C
:1000B000B8C00000B6C00000B4C0000027C40000F3
:1000C000B0C00000AEC00000ACC00000AAC000007C
:1000D000A8C0000036C10000A4C00000A2C00000FB
:1000E000A0C000009EC000009CC000009AC000009C
:1000F00098C0000096C0000094C0000092C00000AC
:1001000090C000008EC000008CC000008AC00000BB
:1001100088C0000086C0000084C0000082C00000CB
:1001200080C000007EC000007CC000007AC00000DB
:1001300078C0000076C0000074C0000072C00000EB
:1001400070C000006EC000006CC000006AC00000FB
:1001500068C0000066C0000064C0000062C000000B
:1001600060C000005EC000005CC000005AC000001B
:1001700058C0000056C0000054C0000052C000002B
:1001800050C000004EC000004CC000004AC000003B
:1001900048C0000046C0000044C0000042C000004B
:1001A00040C000003EC000003CC000003AC000005B
:1001B0007AC2000036C0000034C0000032C0000027
:1001C00030C000002EC000002CC000002AC000007B
:1001D00028C0000026C0000024C0000022C000008B
:1001E00020C000001EC0000011241FBECFEFCDBFF5
:1001F000DFE2DEBF10E2A0E0B0E2EAE3FBE000E015
:100200000BBF02C007900D92AC30B107D9F721E2C5
:10021000ACE0B0E201C01D92A632B207E1F71FD4F4
:100220008AC4EECECF93DF93CAECD1E082E088831C
:10023000E4E2F0E0E4911882A0E4B2E01C96EC93D2
:100240001C978883E5E2F0E0E49118821D96EC9318
:100250001D971092200611961C9211978C91816027
:100260008C9311961C92119780E312968C9312979F
:1002700081E014968C9314979FE016969C931697A2
:1002800090968C93909798E091969C9391979896DE
:100290008C93989790E199969C939997D0968C938C
:1002A000D09798E1D1969C93D197D8968C93D89774
:1002B00080E2D9968C9380EA9FE00197F1F7DF9175
:1002C000CF91089580916002806880936002809150
:1002D00063028823E1F3809168028068809368025A
:1002E00080916B028823E1F3809170028068809393
:1002F0007002809173028823E1F380917802806814
:100300008093780280917B028823E1F3089581E055
:1003100080938106E0E4FAE0108210920C201092A3
:100320000D201182848783E0868389E09DE386A384
:1003300097A386A197A1019780A391A387E08083CB
:1003400008951F920F920FB60F9211242F938F933F
:100350009F9380910C2090910D20009781F021E0D7
:1003600020938506019780930C2090930D209F91F8
:100370008F912F910F900FBE0F901F90189581E0D5
:100380008093860689E090E0EECFE0E0F6E08FEF24
:1003900086838283E0E2F6E08683828383EF809324
:1003A0006206089580910806809586FB882780F96B
:1003B000089580916806809581700895EF92FF926C
:1003C0000F931F93CF93DF938C018AE5F3D2E8015B
:1003D000780189E0E80EF11C8991ECD2CE15DF0599
:1003E000D9F7F80190818181890F9281890F9381DA
:1003F000890F9481890F9581890F9681890F978143
:10040000890F9085890F8095DF91CF911F910F9172
:10041000FF90EF90CFC2DF92EF92FF920F931F9366
:10042000CF93DF938C01D12C89E0E82EF12CCAE028
:10043000D0E0D9D2882309F446C0D11044C0C1D23B
:1004400090911920992309F447C090911820E92F21
:10045000F0E0E25FFF4D80839F5F909318209A3019
:1004600040F31092192030910F2020910E20230F7D
:1004700030911020230F30911120230F3091122042
:10048000230F30911320230F30911420230F30912C
:100490001520230F30911620230F20958217A9F1E4
:1004A0009150492F50E0F701E41BF50BE25FFF4D3F
:1004B00020812A35C1F0292F9111F2CF20931820E5
:1004C00092D28111BACF8D2DDF91CF911F910F91D3
:1004D000FF90EF90DF90089591E08A3509F090E069
:1004E00090931920A6CF90931820BE01641B750B22
:1004F000625F7F4D8EE090E215D381E080931920FA
:1005000020911820211195CFD9CF1092182049E0C1
:1005100050E06EE070E2C80105D3DD24D39489CFAA
:100520001092252088E180938606809381061092A0
:10053000010B1092200B1092210B81E080930C0B89
:1005400093E09093060B10921F2010921A20909126
:10055000080695FF25C08093242020EA30E02093F0
:100560001D2030931E2090EA9093202098E09093D5
:10057000850620910020309101202093260B309396
:10058000270B94E09093000B20E03AE020931B208F
:1005900030931C2090E19093860680931F2008954D
:1005A000109224201092202098E0909386062FEF3E
:1005B00030E020931D2030931E20209100203091A8
:1005C00001202093260B3093270B94E09093000B8F
:1005D00020EF3FE020931B2030931C2090E190936C
:1005E000860680931F20089510921A208091080695
:1005F00085FF0AC081E080932420109220209091F2
:100600001F20992369F10895109224208FEF809381
:10061000202080911F208111F6CF1092202088E0A9
:10062000809386068FEF90E080931D2090931E208C
:1006300080910020909101208093260B9093270BAE
:1006400084E08093000B80EF9FE080931B209093C9
:100650001C2080E18093860681E080931F2008950E
:1006600020EA30E020931D2030931E2090EA9093E2
:10067000202098E090938506209100203091012061
:100680002093260B3093270B94E09093000B20E0EF
:100690003AE020931B2030931C2090E19093860633
:1006A00080931F2008951F920F920FB60F9211246E
:1006B0002F933F938F939F9320E120938706809100
:1006C0001B2090911C200097A9F020911A20211145
:1006D0001FC02091242021111BC02091080625FF56
:1006E00017C088E08093860681E080931A2083E01B
:1006F00090E00FC0209386061092000B1092200B02
:100700001092210B10921F2030911A20332371F088
:10071000019780931B2090931C209F918F913F9174
:100720002F910F900FBE0F901F901895809124204D
:10073000882341F188E0809386061092242010924D
:100740002020809386068FEF90E080931D20909369
:100750001E2080910020909101208093260B909381
:10076000270B84E08093000B80EF9FE080931B2099
:1007700090931C202093860681E080931F2080EFB9
:100780009FE0A7CF1092202088E0809386068FEF0D
:1007900090E080931D2090931E20809100209091E6
:1007A00001208093260B9093270B84E08093000B0D
:1007B00080EF9FE080931B2090931C20209386065F
:1007C00081E080931F2080EF9FE087CF81110EC0D2
:1007D0008091080685FD09C0109224208FEF809338
:1007E000202080911F208823A1F1089590911F203F
:1007F0009111FBCF282F30E090912020291B310947
:1008000020931D2030931E208093202088E0121614
:1008100013060CF041C080938506809100209091D2
:1008200001208093260B9093270B84E08093000B8C
:1008300022953295307F3227207F322720931B204C
:1008400030931C2080E18093860681E080931F20F6
:1008500008951092202088E0809386068FEF90E024
:1008600080931D2090931E20809100209091012064
:100870008093260B9093270B84E08093000B80EFEE
:100880009FE080931B2090931C2080E1809386063C
:1008900081E080931F2008958093860631952195ED
:1008A000310920931D2030931E202115310509F0B8
:1008B000B4CF089590E08093002090930120089594
:1008C000E0E8F6E082E086838183E0E0FAE01182EE
:1008D00010A211A281E0848783E0868310922120F8
:1008E000089590912120911110C091E090932120C2
:1008F00090E0880F991F8093260A9093270A82E040
:100900008093850687E08093000A08951F920F92D6
:100910000FB60F9211240BB60F922F933F934F9364
:100920005F936F937F938F939F93AF93BF93EF9357
:10093000FF9382E080938606E0E0FAE0108210A246
:1009400011A210922120E3DCFF91EF91BF91AF91B2
:100950009F918F917F916F915F914F913F912F91D7
:100960000F900BBE0F900FBE0F901F901895A0E434
:10097000B6E088E011968C931197E0EAF8E087EDF5
:10098000868383E98783118280E3838388E184837C
:1009900083E0858380E111968C93119715968C9353
:1009A0000895E0E4F6E080E1828388E0828310929B
:1009B000A40808959091A10895FFFCCF8093A0080A
:1009C000089590912320809122209817D1F3E091EF
:1009D0002320F0E0EA5DFF4D8081909123209F5F0E
:1009E000909323200895209123209091222081E04C
:1009F0002913089580E008951F920F920FB60F9269
:100A000011240BB60F922F933F934F938F939F9385
:100A1000EF93FF934091A008209123208091222002
:100A200030E090E001962817390759F0E091222034
:100A3000F0E0EA5DFF4D4083809122208F5F80933C
:100A40002220FF91EF919F918F914F913F912F9194
:100A50000F900BBE0F900FBE0F901F901895CF9365
:100A6000DF93CDB7DEB76297CDBFDEBF8BEC80934F
:100A70005200809150008860809350008091510016
:100A800083FFFCCF88ED84BF93E09093400084BF48
:100A9000109241006CDFC6DB78DC12DF38DC40DD11
:100AA00087E08093A2007894FF24FA9408ED11E087
:100AB000CE010A96B0DC8823D9F38A85873049F1C4
:100AC00058F4853069F140F5823061F48B8509DF97
:100AD000CE010A9673DCECCF863599F08A3A49F05C
:100AE000883011F0FA86F4CF5DDC8B8762DC8C876E
:100AF000EFCF8983CE01019661DC04BF10937900AA
:100B0000E7CF48E050E062E070E2CE010B960AD0F9
:100B1000DFCF8B855BDEDCCF8B8590E0CBDED8CF63
:100B200063DDD6CFFB01DC0102C001900D92415084
:0A0B30005040D8F70895F894FFCF65
:0C0B3A0096003030303030303031000098
:00000001FF
